{
    "_format": "hh-sol-artifact-1",
    "contractName": "OnchainRiddle",
    "sourceName": "contracts/OnchainRiddle.sol",
    "abi": [
        {
            "inputs": [],
            "stateMutability": "nonpayable",
            "type": "constructor"
        },
        {
            "anonymous": false,
            "inputs": [
                {
                    "indexed": true,
                    "internalType": "address",
                    "name": "user",
                    "type": "address"
                },
                {
                    "indexed": false,
                    "internalType": "bool",
                    "name": "correct",
                    "type": "bool"
                }
            ],
            "name": "AnswerAttempt",
            "type": "event"
        },
        {
            "anonymous": false,
            "inputs": [
                {
                    "indexed": false,
                    "internalType": "string",
                    "name": "riddle",
                    "type": "string"
                }
            ],
            "name": "RiddleSet",
            "type": "event"
        },
        {
            "anonymous": false,
            "inputs": [
                {
                    "indexed": true,
                    "internalType": "address",
                    "name": "user",
                    "type": "address"
                }
            ],
            "name": "Winner",
            "type": "event"
        },
        {
            "inputs": [],
            "name": "bot",
            "outputs": [
                {
                    "internalType": "address",
                    "name": "",
                    "type": "address"
                }
            ],
            "stateMutability": "view",
            "type": "function"
        },
        {
            "inputs": [],
            "name": "isActive",
            "outputs": [
                {
                    "internalType": "bool",
                    "name": "",
                    "type": "bool"
                }
            ],
            "stateMutability": "view",
            "type": "function"
        },
        {
            "inputs": [],
            "name": "riddle",
            "outputs": [
                {
                    "internalType": "string",
                    "name": "",
                    "type": "string"
                }
            ],
            "stateMutability": "view",
            "type": "function"
        },
        {
            "inputs": [
                {
                    "internalType": "string",
                    "name": "_riddle",
                    "type": "string"
                },
                {
                    "internalType": "bytes32",
                    "name": "_answerHash",
                    "type": "bytes32"
                }
            ],
            "name": "setRiddle",
            "outputs": [],
            "stateMutability": "nonpayable",
            "type": "function"
        },
        {
            "inputs": [
                {
                    "internalType": "string",
                    "name": "_answer",
                    "type": "string"
                }
            ],
            "name": "submitAnswer",
            "outputs": [],
            "stateMutability": "nonpayable",
            "type": "function"
        },
        {
            "inputs": [],
            "name": "winner",
            "outputs": [
                {
                    "internalType": "address",
                    "name": "",
                    "type": "address"
                }
            ],
            "stateMutability": "view",
            "type": "function"
        }
    ],
    "bytecode": "0x608060405234801561001057600080fd5b50600080546001600160a01b0319163317905561075a806100326000396000f3fe608060405234801561001057600080fd5b50600436106100725760003560e01c806356049a861161005057806356049a86146100e0578063bb3e3159146100f5578063dfbf53ae1461010857600080fd5b806310814c37146100775780631fdf5585146100a757806322f3e2d4146100bc575b600080fd5b60005461008a906001600160a01b031681565b6040516001600160a01b0390911681526020015b60405180910390f35b6100ba6100b536600461050f565b61011b565b005b6003546100d090600160a01b900460ff1681565b604051901515815260200161009e565b6100e8610246565b60405161009e9190610578565b6100ba6101033660046105ab565b6102d4565b60035461008a906001600160a01b031681565b6000546001600160a01b0316331461017a5760405162461bcd60e51b815260206004820152601f60248201527f4f6e6c7920626f742063616e2063616c6c20746869732066756e6374696f6e0060448201526064015b60405180910390fd5b600354600160a01b900460ff16156101d45760405162461bcd60e51b815260206004820152601560248201527f526964646c6520616c72656164792061637469766500000000000000000000006044820152606401610171565b60016101e08382610671565b5060028190556003805474ffffffffffffffffffffffffffffffffffffffffff1916600160a01b1790556040517fc7c868b4cedbfd1ed1d9ab41c080a195ed463c01132c6c4b4b8d7983d1c5c29c9061023a908490610578565b60405180910390a15050565b60018054610253906105e8565b80601f016020809104026020016040519081016040528092919081815260200182805461027f906105e8565b80156102cc5780601f106102a1576101008083540402835291602001916102cc565b820191906000526020600020905b8154815290600101906020018083116102af57829003601f168201915b505050505081565b600354600160a01b900460ff1661032d5760405162461bcd60e51b815260206004820152601060248201527f4e6f2061637469766520726964646c65000000000000000000000000000000006044820152606401610171565b6003546001600160a01b0316156103865760405162461bcd60e51b815260206004820152601560248201527f526964646c6520616c726561647920736f6c76656400000000000000000000006044820152606401610171565b6002548160405160200161039a9190610731565b6040516020818303038152906040528051906020012003610426576003805474ffffffffffffffffffffffffffffffffffffffffff1916337fffffffffffffffffffffff00ffffffffffffffffffffffffffffffffffffffff8116919091179091556040517f745c90b656b4aafe296c8ca35aeacfe56cb96c90e1d320e5da643fff1051b6c090600090a25b600354604051336001600160a01b03909216821481527fe1fc7c66a657ead4c3d3717cd8f74fb75e793a583bdc4105621e53abf02a9b059060200160405180910390a250565b634e487b7160e01b600052604160045260246000fd5b600082601f83011261049357600080fd5b813567ffffffffffffffff808211156104ae576104ae61046c565b604051601f8301601f19908116603f011681019082821181831017156104d6576104d661046c565b816040528381528660208588010111156104ef57600080fd5b836020870160208301376000602085830101528094505050505092915050565b6000806040838503121561052257600080fd5b823567ffffffffffffffff81111561053957600080fd5b61054585828601610482565b95602094909401359450505050565b60005b8381101561056f578181015183820152602001610557565b50506000910152565b6020815260008251806020840152610597816040850160208701610554565b601f01601f19169190910160400192915050565b6000602082840312156105bd57600080fd5b813567ffffffffffffffff8111156105d457600080fd5b6105e084828501610482565b949350505050565b600181811c908216806105fc57607f821691505b60208210810361061c57634e487b7160e01b600052602260045260246000fd5b50919050565b601f82111561066c57600081815260208120601f850160051c810160208610156106495750805b601f850160051c820191505b8181101561066857828155600101610655565b5050505b505050565b815167ffffffffffffffff81111561068b5761068b61046c565b61069f8161069984546105e8565b84610622565b602080601f8311600181146106d457600084156106bc5750858301515b600019600386901b1c1916600185901b178555610668565b600085815260208120601f198616915b82811015610703578886015182559484019460019091019084016106e4565b50858210156107215787850151600019600388901b60f8161c191681555b5050505050600190811b01905550565b60008251610743818460208701610554565b919091019291505056fea164736f6c6343000813000a",
    "linkReferences": {},
    "deployedLinkReferences": {}
}